{
  "address": "0x5FbDB2315678afecb367f032d93F642f64180aa3",
  "abi": [
    {
      "inputs": [],
      "name": "Transaction__TransferFailed",
      "type": "error"
    },
    {
      "anonymous": false,
      "inputs": [
        {
          "indexed": false,
          "internalType": "address",
          "name": "from",
          "type": "address"
        },
        {
          "indexed": false,
          "internalType": "address",
          "name": "to",
          "type": "address"
        },
        {
          "indexed": false,
          "internalType": "uint256",
          "name": "amout",
          "type": "uint256"
        },
        {
          "indexed": false,
          "internalType": "string",
          "name": "message",
          "type": "string"
        },
        {
          "indexed": false,
          "internalType": "uint256",
          "name": "timestamp",
          "type": "uint256"
        },
        {
          "indexed": false,
          "internalType": "string",
          "name": "keyword",
          "type": "string"
        }
      ],
      "name": "Transfer",
      "type": "event"
    },
    {
      "inputs": [],
      "name": "getAllTransactions",
      "outputs": [
        {
          "components": [
            {
              "internalType": "address",
              "name": "sender",
              "type": "address"
            },
            {
              "internalType": "address",
              "name": "receiver",
              "type": "address"
            },
            {
              "internalType": "uint256",
              "name": "amount",
              "type": "uint256"
            },
            {
              "internalType": "string",
              "name": "message",
              "type": "string"
            },
            {
              "internalType": "uint256",
              "name": "timestamp",
              "type": "uint256"
            },
            {
              "internalType": "string",
              "name": "keyword",
              "type": "string"
            }
          ],
          "internalType": "struct Transaction.TransferStruct[]",
          "name": "",
          "type": "tuple[]"
        }
      ],
      "stateMutability": "view",
      "type": "function"
    },
    {
      "inputs": [],
      "name": "getTransactionsCount",
      "outputs": [
        {
          "internalType": "uint256",
          "name": "",
          "type": "uint256"
        }
      ],
      "stateMutability": "view",
      "type": "function"
    },
    {
      "inputs": [
        {
          "internalType": "address payable",
          "name": "receiver",
          "type": "address"
        },
        {
          "internalType": "uint256",
          "name": "amount",
          "type": "uint256"
        },
        {
          "internalType": "string",
          "name": "message",
          "type": "string"
        },
        {
          "internalType": "string",
          "name": "keyword",
          "type": "string"
        }
      ],
      "name": "someName",
      "outputs": [],
      "stateMutability": "payable",
      "type": "function"
    }
  ],
  "transactionHash": "0x6c8b4fc2f2e94c0b7a01ca540d8faf793fc17259ee802bdaf94c31cdf90998ef",
  "args": [],
  "numDeployments": 1,
  "solcInputHash": "2320d7421a53b4bbcfe379a1495eb470",
  "bytecode": "0x608060405234801561001057600080fd5b50610f03806100206000396000f3fe6080604052600436106100345760003560e01c806327506f5314610039578063578cb8f914610064578063e3311c6a1461008f575b600080fd5b34801561004557600080fd5b5061004e6100ab565b60405161005b919061078b565b60405180910390f35b34801561007057600080fd5b506100796102ee565b60405161008691906107bc565b60405180910390f35b6100a960048036038101906100a4919061098a565b6102f7565b005b60606001805480602002602001604051908101604052809291908181526020016000905b828210156102e557838290600052602060002090600602016040518060c00160405290816000820160009054906101000a900473ffffffffffffffffffffffffffffffffffffffff1673ffffffffffffffffffffffffffffffffffffffff1673ffffffffffffffffffffffffffffffffffffffff1681526020016001820160009054906101000a900473ffffffffffffffffffffffffffffffffffffffff1673ffffffffffffffffffffffffffffffffffffffff1673ffffffffffffffffffffffffffffffffffffffff168152602001600282015481526020016003820180546101b890610a58565b80601f01602080910402602001604051908101604052809291908181526020018280546101e490610a58565b80156102315780601f1061020657610100808354040283529160200191610231565b820191906000526020600020905b81548152906001019060200180831161021457829003601f168201915b505050505081526020016004820154815260200160058201805461025490610a58565b80601f016020809104026020016040519081016040528092919081815260200182805461028090610a58565b80156102cd5780601f106102a2576101008083540402835291602001916102cd565b820191906000526020600020905b8154815290600101906020018083116102b057829003601f168201915b505050505081525050815260200190600101906100cf565b50505050905090565b60008054905090565b60016000808282546103099190610ab8565b9250508190555060016040518060c001604052803373ffffffffffffffffffffffffffffffffffffffff1681526020018673ffffffffffffffffffffffffffffffffffffffff16815260200185815260200184815260200142815260200183815250908060018154018082558091505060019003906000526020600020906006020160009091909190915060008201518160000160006101000a81548173ffffffffffffffffffffffffffffffffffffffff021916908373ffffffffffffffffffffffffffffffffffffffff16021790555060208201518160010160006101000a81548173ffffffffffffffffffffffffffffffffffffffff021916908373ffffffffffffffffffffffffffffffffffffffff1602179055506040820151816002015560608201518160030190816104419190610c98565b506080820151816004015560a08201518160050190816104619190610c98565b50505060008473ffffffffffffffffffffffffffffffffffffffff164760405161048a90610d9b565b60006040518083038185875af1925050503d80600081146104c7576040519150601f19603f3d011682016040523d82523d6000602084013e6104cc565b606091505b5050905080610507576040517ff61c560d00000000000000000000000000000000000000000000000000000000815260040160405180910390fd5b7f416cfa4330a4565f45c2fd2dd4826a83a37443aba2ce6f79477c7355afac35fa33868686428760405161054096959493929190610e5e565b60405180910390a15050505050565b600081519050919050565b600082825260208201905092915050565b6000819050602082019050919050565b600073ffffffffffffffffffffffffffffffffffffffff82169050919050565b60006105a68261057b565b9050919050565b6105b68161059b565b82525050565b6000819050919050565b6105cf816105bc565b82525050565b600081519050919050565b600082825260208201905092915050565b60005b8381101561060f5780820151818401526020810190506105f4565b60008484015250505050565b6000601f19601f8301169050919050565b6000610637826105d5565b61064181856105e0565b93506106518185602086016105f1565b61065a8161061b565b840191505092915050565b600060c08301600083015161067d60008601826105ad565b50602083015161069060208601826105ad565b5060408301516106a360408601826105c6565b50606083015184820360608601526106bb828261062c565b91505060808301516106d060808601826105c6565b5060a083015184820360a08601526106e8828261062c565b9150508091505092915050565b60006107018383610665565b905092915050565b6000602082019050919050565b60006107218261054f565b61072b818561055a565b93508360208202850161073d8561056b565b8060005b85811015610779578484038952815161075a85826106f5565b945061076583610709565b925060208a01995050600181019050610741565b50829750879550505050505092915050565b600060208201905081810360008301526107a58184610716565b905092915050565b6107b6816105bc565b82525050565b60006020820190506107d160008301846107ad565b92915050565b6000604051905090565b600080fd5b600080fd5b60006107f68261057b565b9050919050565b610806816107eb565b811461081157600080fd5b50565b600081359050610823816107fd565b92915050565b610832816105bc565b811461083d57600080fd5b50565b60008135905061084f81610829565b92915050565b600080fd5b600080fd5b7f4e487b7100000000000000000000000000000000000000000000000000000000600052604160045260246000fd5b6108978261061b565b810181811067ffffffffffffffff821117156108b6576108b561085f565b5b80604052505050565b60006108c96107d7565b90506108d5828261088e565b919050565b600067ffffffffffffffff8211156108f5576108f461085f565b5b6108fe8261061b565b9050602081019050919050565b82818337600083830152505050565b600061092d610928846108da565b6108bf565b9050828152602081018484840111156109495761094861085a565b5b61095484828561090b565b509392505050565b600082601f83011261097157610970610855565b5b813561098184826020860161091a565b91505092915050565b600080600080608085870312156109a4576109a36107e1565b5b60006109b287828801610814565b94505060206109c387828801610840565b935050604085013567ffffffffffffffff8111156109e4576109e36107e6565b5b6109f08782880161095c565b925050606085013567ffffffffffffffff811115610a1157610a106107e6565b5b610a1d8782880161095c565b91505092959194509250565b7f4e487b7100000000000000000000000000000000000000000000000000000000600052602260045260246000fd5b60006002820490506001821680610a7057607f821691505b602082108103610a8357610a82610a29565b5b50919050565b7f4e487b7100000000000000000000000000000000000000000000000000000000600052601160045260246000fd5b6000610ac3826105bc565b9150610ace836105bc565b9250828201905080821115610ae657610ae5610a89565b5b92915050565b60008190508160005260206000209050919050565b60006020601f8301049050919050565b600082821b905092915050565b600060088302610b4e7fffffffffffffffffffffffffffffffffffffffffffffffffffffffffffffffff82610b11565b610b588683610b11565b95508019841693508086168417925050509392505050565b6000819050919050565b6000610b95610b90610b8b846105bc565b610b70565b6105bc565b9050919050565b6000819050919050565b610baf83610b7a565b610bc3610bbb82610b9c565b848454610b1e565b825550505050565b600090565b610bd8610bcb565b610be3818484610ba6565b505050565b5b81811015610c0757610bfc600082610bd0565b600181019050610be9565b5050565b601f821115610c4c57610c1d81610aec565b610c2684610b01565b81016020851015610c35578190505b610c49610c4185610b01565b830182610be8565b50505b505050565b600082821c905092915050565b6000610c6f60001984600802610c51565b1980831691505092915050565b6000610c888383610c5e565b9150826002028217905092915050565b610ca1826105d5565b67ffffffffffffffff811115610cba57610cb961085f565b5b610cc48254610a58565b610ccf828285610c0b565b600060209050601f831160018114610d025760008415610cf0578287015190505b610cfa8582610c7c565b865550610d62565b601f198416610d1086610aec565b60005b82811015610d3857848901518255600182019150602085019450602081019050610d13565b86831015610d555784890151610d51601f891682610c5e565b8355505b6001600288020188555050505b505050505050565b600081905092915050565b50565b6000610d85600083610d6a565b9150610d9082610d75565b600082019050919050565b6000610da682610d78565b9150819050919050565b610db98161059b565b82525050565b6000610dda610dd5610dd08461057b565b610b70565b61057b565b9050919050565b6000610dec82610dbf565b9050919050565b6000610dfe82610de1565b9050919050565b610e0e81610df3565b82525050565b600082825260208201905092915050565b6000610e30826105d5565b610e3a8185610e14565b9350610e4a8185602086016105f1565b610e538161061b565b840191505092915050565b600060c082019050610e736000830189610db0565b610e806020830188610e05565b610e8d60408301876107ad565b8181036060830152610e9f8186610e25565b9050610eae60808301856107ad565b81810360a0830152610ec08184610e25565b905097965050505050505056fea2646970667358221220f6c55de3ea71ef287019cf887234ff2935ee764622cb7cfc51fe22353d0376c264736f6c63430008120033",
  "devdoc": {
    "kind": "dev",
    "methods": {},
    "version": 1
  },
  "userdoc": {
    "kind": "user",
    "methods": {},
    "version": 1
  },
  "storageLayout": {
    "storage": [
      {
        "astId": 5,
        "contract": "contracts/Transaction.sol:Transaction",
        "label": "txCount",
        "offset": 0,
        "slot": "0",
        "type": "t_uint256"
      },
      {
        "astId": 36,
        "contract": "contracts/Transaction.sol:Transaction",
        "label": "transactions",
        "offset": 0,
        "slot": "1",
        "type": "t_array(t_struct(TransferStruct)32_storage)dyn_storage"
      }
    ],
    "types": {
      "t_address": {
        "encoding": "inplace",
        "label": "address",
        "numberOfBytes": "20"
      },
      "t_array(t_struct(TransferStruct)32_storage)dyn_storage": {
        "base": "t_struct(TransferStruct)32_storage",
        "encoding": "dynamic_array",
        "label": "struct Transaction.TransferStruct[]",
        "numberOfBytes": "32"
      },
      "t_string_storage": {
        "encoding": "bytes",
        "label": "string",
        "numberOfBytes": "32"
      },
      "t_struct(TransferStruct)32_storage": {
        "encoding": "inplace",
        "label": "struct Transaction.TransferStruct",
        "members": [
          {
            "astId": 21,
            "contract": "contracts/Transaction.sol:Transaction",
            "label": "sender",
            "offset": 0,
            "slot": "0",
            "type": "t_address"
          },
          {
            "astId": 23,
            "contract": "contracts/Transaction.sol:Transaction",
            "label": "receiver",
            "offset": 0,
            "slot": "1",
            "type": "t_address"
          },
          {
            "astId": 25,
            "contract": "contracts/Transaction.sol:Transaction",
            "label": "amount",
            "offset": 0,
            "slot": "2",
            "type": "t_uint256"
          },
          {
            "astId": 27,
            "contract": "contracts/Transaction.sol:Transaction",
            "label": "message",
            "offset": 0,
            "slot": "3",
            "type": "t_string_storage"
          },
          {
            "astId": 29,
            "contract": "contracts/Transaction.sol:Transaction",
            "label": "timestamp",
            "offset": 0,
            "slot": "4",
            "type": "t_uint256"
          },
          {
            "astId": 31,
            "contract": "contracts/Transaction.sol:Transaction",
            "label": "keyword",
            "offset": 0,
            "slot": "5",
            "type": "t_string_storage"
          }
        ],
        "numberOfBytes": "192"
      },
      "t_uint256": {
        "encoding": "inplace",
        "label": "uint256",
        "numberOfBytes": "32"
      }
    }
  }
}